:020000040800F2
:1000000000000220492700083D260008432600087A
:10001000492600084F260008552600080000000069
:100020000000000000000000000000005B26000847
:1000300069260008000000007726000885260008D1
:100040009927000899270008992700089927000890
:100050009927000899270008992700089927000880
:100060009927000899270008992700089927000870
:100070009927000899270008992700089927000860
:100080009927000899270008992700080000000018
:100090000000000000000000000000009927000898
:1000A0009927000899270008992700089927000830
:1000B0009927000899270008992700089927000820
:1000C0009927000899270008992700089927000810
:1000D0009927000891260008A526000800000000C6
:1000E00099270008992700089927000800000000B8
:1000F0000000000000000000000000009927000838
:100100000000000099270008992700089927000897
:1001100000000000000000000000000000000000DF
:1001200099270008992700089927000899270008AF
:1001300099270008000000000000000000000000F7
:1001400000000000000000000000000099270008E7
:10015000992700089927000899270008992700087F
:1001600099270008992700080000000000000000FF
:10017000000000000000000000000000000000007F
:1001800000000000992700080000000000000000A7
:080190009927000899270008D7
:1001A00010B5054C237833B9044B13B10448AFF3B1
:1001B00000800123237010BD6800002000000000B3
:1001C000A04F000808B5034B1BB103490348AFF328
:1001D000008008BD000000006C000020A04F000857
:1001E00010F8012B11F8013B012A28BF9A42F7D0E1
:1001F000D01A7047034613F8012B002AFBD1181AB6
:1002000001387047000000000000000000000000FE
:1002100001F0FF01102A2BDB10F0070F08D010F8B7
:10022000013B013A8B422DD010F0070F42B3F6D1BB
:10023000F0B441EA012141EA014122F007047FF0D4
:1002400000070023F0E80256083C85EA010586EA2B
:10025000010685FA47F5A3FA87F586FA47F6A5FA67
:1002600087F68EB9EED1F0BC01F0FF0102F0070273
:1002700032B110F8013B013A83EA010313B1F8D11E
:100280000020704701387047002D06BF35460338FF
:10029000073815F0010F07D1013015F4807F02BF38
:1002A000013015F4C03F0130F0BC0138704700BF89
:1002B00053B94AB9002908BF00281CBF4FF0FF31CD
:1002C0004FF0FF3000F070B9ADF1080C6DE904CECD
:1002D00000F006F8DDF804E0DDE9022304B0704721
:1002E0002DE9F047089E0D4604460F46002B4AD1E3
:1002F0008A42944665D9B2FA82F343B102FA03FC0A
:10030000C3F120029F4020FA02F217439C404FEABB
:100310001C4E1FFA8CF5B7FBFEF1220C0EFB117779
:1003200042EA074201FB05F090420AD91CEB0202A7
:1003300001F1FF3780F01C81904240F219810239AF
:100340006244121AA4B2B2FBFEF00EFB102244EA81
:10035000024400FB05F5A5420AD91CEB040400F198
:10036000FF3280F00781A54240F2048164440238E4
:1003700040EA0140641B00211EB1DC400023C6E9B5
:100380000043BDE8F0878B4208D9002E00F0ED80D5
:100390000021C6E900050846BDE8F087B3FA83F1FD
:1003A000002949D1AB4202D3824200F2F880841A7C
:1003B00065EB030201201746002EE2D0C6E9004794
:1003C000DFE702B9FFDEB2FA82F3002B40F0908043
:1003D0008A1A4FEA1C471FFA8CFE0121B2FBF7F57F
:1003E00007FB1520220C42EA00420EFB05F090426A
:1003F00008D91CEB020205F1FF3802D2904200F24C
:10040000CB804546121AA4B2B2FBF7F007FB1022CC
:1004100044EA02440EFB00FEA64508D91CEB040486
:1004200000F1FF3202D2A64500F2BB801046A4EBD9
:100430000E0440EA05409FE7C1F120078B4022FAF5
:1004400007FC4CEA030C05FA01F420FA07F3FD401F
:100450004FEA1C492343B5FBF9F81FFA8CFE09FB50
:1004600018551C0C44EA054408FB0EF5A54202FA97
:1004700001F200FA01F00BD91CEB040408F1FF3A79
:1004800080F08880A54240F28580A8F1020864448B
:10049000641B9DB2B4FBF9F309FB134445EA044421
:1004A00003FB0EFEA64508D91CEB040403F1FF353F
:1004B0006CD2A6456AD9023B644443EA0843A3FBD5
:1004C0000295A4EB0E04AC42C846AE4656D353D0B8
:1004D00056B1B0EB080264EB0E0404FA07F7CA4009
:1004E000CC401743C6E9007418460021BDE8F087E8
:1004F000C3F1200102FA03FC20FA01F225FA01F10E
:100500009D402A434FEA1C471FFA8CFEB1FBF7F0CF
:1005100007FB1015110C41EA054100FB0EF58D4259
:1005200004FA03F408D91CEB010100F1FF382FD2C3
:100530008D422DD902386144491B92B2B1FBF7F5C7
:1005400007FB151142EA014205FB0EF1914208D961
:100550001CEB020205F1FF3816D2914214D9023D7C
:100560006244521A45EA004138E73146304608E70E
:100570003946E6E61046FBE64845A9D2B9EB020843
:1005800065EB0C0E013BA3E74546EAE72B4694E7F3
:100590004046D1E7D0467BE7023D624432E7084659
:1005A0000AE76444023842E7704700BF80B598B05C
:1005B00000AF786039602949294800F01BFC00230E
:1005C000FB650CE00023BB6502E0BB6D0133BB653E
:1005D000BB6D244A9342F8DBFB6D0133FB65FB6D79
:1005E000042BEFDD1D4800F04FFA1C491E4800F0B7
:1005F00001FC00BF19491D4800F09CFD0346002B7B
:10060000F8D0164800F040FA1449194800F0F2FBFF
:1006100000BF1249154800F08DFD0346002BF8D0AD
:100620000E4800F031FA07F108003B687A6811497A
:1006300003F0FCFF07F108030849184600F0DAFB55
:1006400000BF0649094800F075FD0346002BF8D0AD
:1006500000BF00BF6037BD4680BD00BF5C110020F9
:10066000B84F000840B31100C44F0008CC4F000839
:10067000D44F0008E44F000880B584B000AF786024
:100680007868FFF7B7FD0346BB600023FB6007E017
:10069000FB687A68134400221A70FB680133FB6020
:1006A000FA68BB689A42F3DB00BF00BF1037BD4653
:1006B00080BD000080B5ADF5087D00AF07F508737B
:1006C000A3F50773186007F50873A3F5FC73002200
:1006D0001A6004334FF4F8720021184603F0E0FF6B
:1006E00007F50873A3F5067300221A60043300228D
:1006F0001A605A609A60DA601A615A611A83334844
:1007000000F0C2F93149324800F074FB00BF2F49B4
:10071000304800F00FFD0346002BF8D007F1280306
:100720001846FFF7A9FF07F128032B49184603F0E5
:100730007DFF07F128031846FFF75CFD0346C7F865
:100740001C3207F108031846FFF796FF07F108036C
:10075000D7F81C222149184603F068FF07F1080367
:100760001A49184600F046FB00BF18491C4800F023
:10077000E1FC0346002BF8D007F128031349184683
:1007800000F038FB00BF1149164800F0D3FC0346C7
:10079000002BF8D000BF0D49134800F0CBFC0346F6
:1007A000002BF8D000BF07F50873A3F50773074ABD
:1007B00019680E4800F036FB0346002BF3D000BF4B
:1007C00000BF07F50877BD4680BD00BF5C11002063
:1007D000FC4F0008CC4F000838500008A850000813
:1007E000B8500008BC500008C8500008D05000089D
:1007F00080B485B000AF78600023FB607B682E4A30
:10080000934206D87B68B3F1006F02D30023FB60EC
:100810004BE07B68294A934206D87B68284A93427A
:1008200002D30123FB6040E07B68264A934206D84E
:100830007B68254A934202D30223FB6035E07B6844
:10084000224A934206D27B68214A934202D3032371
:10085000FB602AE07B681F4A934206D27B681B4AF2
:10086000934202D90423FB601FE07B681A4A93423B
:1008700006D27B68174A934202D90523FB6014E035
:100880007B68164A934206D27B68134A934202D988
:100890000623FB6009E07B68114A934205D27B681E
:1008A0000E4A934201D90723FB60FB6818461437B0
:1008B000BD465DF8047B7047FE3F0008FE7F0008E0
:1008C00000400008FEBF000800800008FFFF00088D
:1008D00000C00008FFFF0108FFFF0308FFFF050835
:1008E000FFFF070880B485B000AF78607B681B68A5
:1008F000FB60FB6818461437BD465DF8047B704703
:10090000B0B582B000AF7860396002F077F93B682B
:1009100000221C46154622462B467968022002F02A
:1009200019F902F08DF9002318460837BD46B0BD0D
:1009300080B588B000AF78600023FB6102F05EF9FB
:100940007868FFF755FFB8617B687B617869FFF7CE
:100950004FFF3861114B00221A60104B02221A61BE
:100960000E4ABB6993603A69BB69D31A01330B4ADB
:10097000D36007F10C031946084802F0BDFA03469C
:10098000002B03D002F06CF9034602E002F058F9A4
:10099000002318462037BD4680BD00BF84000020DC
:1009A00080B400AF184B194A1A60194B194A1A60E3
:1009B000194B1A4A1A601A4B1A4A1A601A4B1B68CA
:1009C0005A69194B1B6842F001025A61174B1B68A8
:1009D0005A69164B1B6842F001025A61124B1B68A0
:1009E000DA68114B1B6842F02002DA600F4B1B687B
:1009F000DA680E4B1B6842F02002DA6000BFBD4689
:100A00005DF8047B704700BF20110020A00000208B
:100A100024110020C004002028110020E00800203C
:100A20002C110020000D00205C110020A0110020DE
:100A300080B485B000AF03463960FB713B68D3F8E2
:100A400018345A1C0F4BA3FB02139B0A4FF483610B
:100A500001FB03F3D31AFB603B68D3F81C24FB684B
:100A60009A4209D03B68D3F818343A68F979D154DE
:100A7000FA683B68C3F8182400BF1437BD465DF818
:100A8000047B7047F32C23FA80B582B000AF786006
:100A90007B68124A93420CD1114B1B684FF483625E
:100AA0000021184603F0FCFD0D4B1B680022C3F823
:100AB00018247B680B4A93420CD10B4B1B684FF4F4
:100AC00083620021184603F0EBFD074B1B680022F0
:100AD000C3F8182400BF0837BD4680BD5C11002054
:100AE00020110020A01100202811002080B483B024
:100AF00000AF78607B681C4A934214D11B4B1B6883
:100B0000D3F81824194B1B68D3F81C349A4202D12D
:100B10004FF0FF3322E0154B1A68144B1B68D3F8D3
:100B20001C34D35C1AE07B68114A934214D1114BF8
:100B30001B68D3F818240F4B1B68D3F81C349A4257
:100B400002D14FF0FF3309E00A4B1A68094B1B68CA
:100B5000D3F81C34D35C01E04FF0FF3318460C3758
:100B6000BD465DF8047B70475C1100202011002019
:100B7000A01100202811002080B485B000AF78605B
:100B80007B68304A934228D12F4B1B68D3F8182436
:100B90002D4B1B68D3F81C349A4202D14FF0FF331F
:100BA0004AE0294B1A68284B1B68D3F81C34D35CE5
:100BB000BB73254B1B68D3F81C345A1C224B196895
:100BC000224BA3FB02039B0A4FF4836000FB03F359
:100BD000D31AC1F81C34BB7B2EE07B681C4A9342BD
:100BE00028D11C4B1B68D3F818241A4B1B68D3F868
:100BF0001C349A4202D14FF0FF331DE0154B1A68A6
:100C0000144B1B68D3F81C34D35CFB73114B1B686B
:100C1000D3F81C345A1C0F4B19680C4BA3FB02036E
:100C20009B0A4FF4836000FB03F3D31AC1F81C3412
:100C3000FB7B01E04FF0FF3318461437BD465DF8EB
:100C4000047B70475C11002020110020F32C23FA54
:100C5000A01100202811002080B485B000AF78607A
:100C600039607B68002B62DB3B68344A93422DD1AC
:100C7000334B1B68D3F818345A1C324BA3FB0213B6
:100C80009B0A4FF4836101FB03F3D31ABB6000BFDF
:100C90002B4B1B68D3F81C24BB689A42F8D0284B16
:100CA0001A68274B1B68D3F818347968C9B2D15435
:100CB000234B1B68BA68C3F81824204B1B68DA68FA
:100CC0001E4B1B6842F08002DA6030E03B681E4A2F
:100CD00093422CD11D4B1B68D3F818345A1C194B66
:100CE000A3FB02139B0A4FF4836101FB03F3D31AA6
:100CF000FB6000BF154B1B68D3F81C24FB689A42AD
:100D0000F8D0124B1A68114B1B68D3F81834796865
:100D1000C9B2D1540D4B1B68FA68C3F818240A4BAA
:100D20001B68DA68084B1B6842F08002DA6000BF7B
:100D30001437BD465DF8047B704700BF5C1100208E
:100D400024110020F32C23FAA01100202C110020E4
:100D500080B483B000AF78607B68214A934219D198
:100D6000204B1B68D3F818349AB21E4B1B68D3F87B
:100D70001C349BB2D31A9BB203F583639BB21A4A0D
:100D8000A2FB0312920A4FF4836101FB02F29B1A49
:100D90009BB21FE07B68154A934219D1144B1B6824
:100DA000D3F818349AB2124B1B68D3F81C349BB298
:100DB000D31A9BB203F583639BB20B4AA2FB0312C7
:100DC000920A4FF4836101FB02F29B1A9BB201E08D
:100DD0004FF0FF3318460C37BD465DF8047B704773
:100DE0005C11002020110020F32C23FAA011002018
:100DF0002811002080B582B000AF7860396007E02C
:100E00007B685A1C7A601B7839681846FFF724FF04
:100E10007B681B78002BF3D100BF00BF0837BD46AD
:100E200080BD000080B588B000AFF860B9607A601E
:100E30005549F868FFF7D4F90346002B40F09F802E
:100E40000023FB61F868FFF7D5F903467B610023B7
:100E5000BB6100BF7868FFF77BFF0346002BF9D02A
:100E60004CE07B68494A93421DD1494B1968484B75
:100E70001B68D3F81C24BB69B86803448A5C1A70E9
:100E8000434B1B68D3F81C345A1C414B1968414B27
:100E9000A3FB02039B0A4FF4836000FB03F3D31A06
:100EA000C1F81C3420E07B683B4A93421CD13B4B89
:100EB00019683A4B1B68D3F81C24BB69B868034413
:100EC0008A5C1A70354B1B68D3F81C345A1C334BA0
:100ED0001968304BA3FB02039B0A4FF4836000FBAD
:100EE00003F3D31AC1F81C34BB690133BB6100BFE3
:100EF0007868FFF72DFF0346002BF9D07868FFF7DD
:100F0000F5FD0146FB69FA6813441B789942A8D1A4
:100F10001BE0FB690133FB617868FFF72DFE01469A
:100F2000BB695A1CBA611A46BB681344CAB21A702C
:100F3000FA697B699A4201D1012320E000BF7868F9
:100F4000FFF706FF0346002BF9D07868FFF7CEFDC8
:100F50000146FB69FA6813441B789942D9D0FA69B3
:100F60007B699A4202D00023FB6172E7FA697B69D0
:100F70009A4201D1012302E04FF0FF33FFE7184608
:100F80002037BD4680BD00BFDC5000085C1100204A
:100F900020110020F32C23FAA0110020281100209A
:100FA00080B588B000AFF860B9607A605A49F868D7
:100FB000FFF716F90346002B40F0A9800023FB61E0
:100FC000F868FFF717F903467B610023BB6100BF98
:100FD0007868FFF7BDFE0346002BF9D056E07B682A
:100FE0004E4A934222D14E4B1B6801334C4A136048
:100FF0004C4B19684B4B1B68D3F81C24BB69B86871
:1010000003448A5C1A70474B1B68D3F81C345A1C83
:10101000444B1968444BA3FB02039B0A4FF48360C3
:1010200000FB03F3D31AC1F81C3425E07B683F4A68
:10103000934221D13A4B1B680133394A13603C4B30
:1010400019683B4B1B68D3F81C24BB69B868034480
:101050008A5C1A70364B1B68D3F81C345A1C344B0C
:101060001968314BA3FB02039B0A4FF4836000FB1A
:1010700003F3D31AC1F81C34BB690133BB6100BF51
:101080007868FFF765FE0346002BF9D07868FFF714
:101090002DFD0146FB69FA6813441B7899429ED1E5
:1010A0001BE0FB690133FB617868FFF765FD0146D2
:1010B000BB695A1CBA611A46BB681344CAB21A709B
:1010C000FA697B699A4201D1012320E000BF786868
:1010D000FFF73EFE0346002BF9D07868FFF706FDC8
:1010E0000146FB69FA6813441B789942D9D0FA6922
:1010F0007B699A4202D00023FB6168E7FA697B6949
:101100009A4201D1012302E04FF0FF33FFE7184676
:101110002037BD4680BD00BFE05000085C110020B4
:101120009C00002020110020F32C23FAA0110020A5
:101130002811002080B584B000AF786039600023AA
:10114000FB607868FFF756F80346BB60654B4FF4C9
:10115000FA721A8000BF3868FFF7FAFD0346002BC9
:1011600003D1604B1B88002BF5D15E4B1B88002BF5
:1011700047D10023B2E03B685B4A93421ED15B4BF0
:101180001B68D3F81C24594B1B68D3F818349A42B7
:1011900012D0564B1B68D3F81C345A1C534B196899
:1011A000534BA3FB02039B0A4FF4836000FB03F342
:1011B000D31AC1F81C3401E000238FE03B684D4A8C
:1011C00093421ED14C4B1B68D3F81C244A4B1B681E
:1011D000D3F818349A4212D0474B1B68D3F81C340A
:1011E0005A1C454B1968424BA3FB02039B0A4FF460
:1011F000836000FB03F3D31AC1F81C3401E0002321
:101200006CE03868FFF772FC0146FB687A681344AB
:101210001B789942AFD149E0FB680133FB603B6822
:10122000314A934211D1314B1B68D3F81C345A1CFC
:101230002E4B19682E4BA3FB02039B0A4FF48360CD
:1012400000FB03F3D31AC1F81C343B68294A9342CC
:1012500011D1294B1B68D3F81C345A1C264B196832
:10126000234BA3FB02039B0A4FF4836000FB03F3B1
:10127000D31AC1F81C34FA68BB689A4201D1012321
:101280002CE0184B4FF4FA721A8000BF3868FFF751
:101290005FFD0346002B03D1124B1B88002BF5D1B9
:1012A000104B1B88002B01D1002317E03868FFF793
:1012B0001DFC0146FB687A6813441B789942ABD049
:1012C000FA68BB689A4202D00023FB603EE7FA68E6
:1012D000BB689A4201D1012300E000231846103771
:1012E000BD4680BD980000205C1100202011002028
:1012F000F32C23FAA01100202811002080B586B01D
:1013000000AF78607B681B681B687B617B681B682B
:10131000DB683B617B6903F02003002B23D03B6932
:1013200003F02003002B1ED07B681B681B687B68C2
:101330001B685B68FB737B68464A934207D1464B48
:101340001A68FB7B11461846FFF772FB7BE07B684F
:10135000424A934277D1424B1A68FB7B11461846AA
:10136000FFF766FB6FE07B6903F08003002B6DD015
:101370003B6903F08003002B68D07B68354A9342B9
:101380002ED1384BD3F81824364BD3F81C349A425C
:1013900008D17B681B68DA687B681B6822F08002D2
:1013A000DA6052E02F4BD3F81C342E4AD35C7B73A7
:1013B0002C4BD3F81C345A1C2B4BA3FB02139B0A57
:1013C0004FF4836101FB03F3D31A264AC2F81C349D
:1013D0007B681B681B687B681B687A7B5A6034E0FB
:1013E0007B681E4A934230D1204BD3F818241F4B00
:1013F000D3F81C349A4208D17B681B68DA687B6892
:101400001B6822F08002DA601FE0184BD3F81C340E
:10141000164AD35CBB73154BD3F81C345A1C124BC1
:10142000A3FB02139B0A4FF4836101FB03F3D31A5E
:101430000E4AC2F81C347B681B681B687B681B68FB
:10144000BA7B5A6001E000BF00E000BF1837BD461C
:1014500080BD00BF5C11002020110020A0110020E1
:1014600028110020C0040020F32C23FA000D0020D6
:1014700080B586B000AF78607B6804331B687B6101
:101480007B693B6102F036FC01F0AAF90D4B0022AA
:101490001A600C4B00225A600A4B00229A600A4ADA
:1014A0007B6893607B681B68FB60FB68BB60BB6804
:1014B00083F3088800BF3B69984700BF1837BD46D3
:1014C00080BD00BF10E000E000ED00E0B0B586B0E8
:1014D00000AF786039603968786803F0E9F87861BE
:1014E0007B69002B3BD03868FEF784FE38617A694F
:1014F0003B69D4187A693B6913441846FEF77AFEB3
:10150000034601331A462146786903F0AFF87A6939
:101510007B68D31A1A463B691344FB6012E07A6871
:10152000FB68D418FB6801337A68D5187A68FB68C1
:1015300013441846FEF75EFE03461A462946204627
:1015400003F094F87A68FB6813441B78202BE6D0EC
:101550007A68FB6813441B78002BE0D000E000BFE2
:101560001837BD46B0BD80B588B000AF78600023A5
:10157000FB6007F1100300221A601A717B681B7868
:10158000302B0CD17B6801331B78782B04D07B681F
:1015900001331B78582B02D17B6802337B60002318
:1015A000FB610CE0FB697A681344197807F10C02BF
:1015B000FB6913440A461A70FB690133FB61FB693E
:1015C000072BEFDD07F10C0310220021184603F072
:1015D00023F8B861BB6918462037BD4680BD80B48A
:1015E00085B000AF03460A46FB711346BB71FB7919
:1015F0002F2B06D9FB79392B03D8FB79303BFB60C5
:1016000016E0FB79402B06D9FB79462B03D8FB79F2
:10161000373BFB600CE0FB79602B06D9FB79662B2E
:1016200003D8FB79573BFB6002E04FF0FF3324E027
:10163000BB792F2B06D9BB79392B03D8BB79303B2B
:10164000BB6016E0BB79402B06D9BB79462B03D88B
:10165000BB79373BBB600CE0BB79602B06D9BB790B
:10166000662B03D8BB79573BBB6002E04FF0FF33DA
:1016700003E0FB681A01BB68134418461437BD46E3
:101680005DF8047B7047000080B582B000AF7860E1
:1016900003497868FFF7AEFB00BF0837BD4680BD41
:1016A000A011002080B500AF064B1A68054B5B689F
:1016B0000549064802F0BAFF0448FFF7E5FF00BFFE
:1016C00080BD00BF84870020EC50000864870020A4
:1016D00080B485B000AF78600B46FB700023FB60E0
:1016E00005E0FB680133FB607B6801337B607B684E
:1016F0001B78FA789A42F4D1FB6818461437BD4635
:101700005DF8047B7047000080B483B000AF786060
:101710000B46FB7007E00D4B1B6801330B4A13604F
:101720007B6801337B607B681B78FA789A42F2D140
:10173000064B1B680133054A1360044B1B681846AF
:101740000C37BD465DF8047B704700BFB8870020AA
:1017500080B483B000AF78600B46FB7008E000BF38
:10176000114B1B680133104A13607B6801337B60A7
:101770007B681B78FA789A42F1D17B6801331B7839
:101780002B2B03D1094B01221A70E9E7064B1B688A
:101790000133054A1360044B1B6818460C37BD46DD
:1017A0005DF8047B704700BFBC870020B487002031
:1017B00080B485B000AF78600023FB6005E0FB6873
:1017C0000133FB607B6801337B607B681B782B2BCC
:1017D000F5D1FB680133FB60FB6818461437BD4642
:1017E0005DF8047B7047000080B485B000AF78607E
:1017F0000B46FB700023FB6006E000BFFB68013373
:10180000FB607B6801337B607B681B78FA789A42C7
:10181000F3D17B6801331B782B2B03D1064B0122BC
:101820001A70EBE7FB680133FB60FB68184614375E
:10183000BD465DF8047B7047B487002080B58CB04E
:1018400000AF78600023BB6200237B6200233B6211
:101850000023FB610023BB6100237B6100237B82AB
:1018600000237B6208E0974A7B6A13440733002217
:101870001A707B6A01337B629348FEF7BBFC024619
:101880007B6A9A42EFD8002387F82E300023BB6290
:101890000BE197F82E30062B00F2028101A252F8DC
:1018A00023F000BFC1180008D91800080319000868
:1018B0005B19000897190008D7190008231A0008B7
:1018C000BB6A7A6813441B783A2B01D00123F5E0F8
:1018D000012387F82E30E5E07B6801331A787B68B6
:1018E00002331B7819461046FFF779FEB861BB69D1
:1018F000DAB2744B1A700223BB62022387F82E30CF
:10190000D0E07B6803331A786E4B5A707B680433DF
:101910001A786C4B9A707B6805331A78694BDA70C9
:101920007B6806331A78674B1A71664B5B78654A99
:10193000927811461846FFF752FE3862614BDB7809
:10194000604A127911461846FFF749FEF8610623EE
:10195000BB62032387F82E30A4E07B6807331A7834
:10196000584B5A717B6808331A78564B9A71554B0D
:101970005B79544A927911461846FFF730FE786138
:101980007B69012B01D1012398E00823BB6204236A
:1019900087F82E3086E00923FB600CE0FB687A684C
:1019A0001A44FB68093B1178464A13440A46DA7127
:1019B000FB680133FB60434B1B7804335B00FA6820
:1019C0009A42EBDD3F4B1B785B000833BB6205237B
:1019D00087F82E3066E03B4B1B785B0009331A46D4
:1019E0007B6813441A78374B83F82720354B1B78D4
:1019F00005335B001A467B6813441A78314B83F831
:101A00002820304B93F827302E4A92F82820114690
:101A10001846FFF7E4FD03467B82062387F82E3045
:101A200040E0BB69DAB23B6ADBB21344DAB2FB696D
:101A3000DBB21344DAB27B69DBB2134487F82F3090
:101A400000237B6217E01F4A7B6A134407331A782E
:101A50007B6A01331B490B44DB7919461046FFF7BB
:101A6000BEFD0346DAB297F82F30134487F82F30C3
:101A70007B6A02337B62134B1B785B007A6A9A4263
:101A8000E1DB97F82F305B4287F82F3097F82F3043
:101A90009BB27A8A9A4201D100230FE001230DE024
:101AA00001230BE0BB6A0133BB627868FEF7A2FB3F
:101AB0000246BB6A9A423FF6ECAE00231846303726
:101AC000BD4680BD301100203711002080B5A0B088
:101AD00000AFF860B9607A600023FB670023BB6742
:101AE00000237B6700233B670023FB660023BB6664
:101AF0003B6FFA6813440A211846FFF705FE786623
:101B00007B683B66386EFEF713FFBB6F012B0BD172
:101B1000FA6EFB6FD31AFB66934B1B88013B9AB29C
:101B2000914B1A800023BB673B6FFA6813440A216C
:101B30001846FFF70DFEF866BB6E002B03D1BB6E97
:101B40000133BB6603E0FA6E3B6FD31A7B6600235A
:101B5000FB650DE07B6F5A1C7A671A46FB681A44D6
:101B6000FB6DB9680B4412781A70FB6D0133FB658D
:101B7000FA6D7B6E9A42EDDBFB6E3B670023FB67E1
:101B8000794B1B8801339AB2774B1A80774B1B78BD
:101B9000012B44D100233B6107F1140300221A609A
:101BA0005A609A60DA601A615A611A830023BB6531
:101BB00000237B65B868FFF7FBFD0346033BBB656D
:101BC00024E0BB6DBA681344197807F110027B6DED
:101BD00013440A461A7007F110027B6D13441B78F8
:101BE0003A2B0DD1614B00221A707B6DFB6707F118
:101BF00010031946B868FFF769FC0123BB670FE0C3
:101C00007B6D01337B65BB6D0133BB650A21B86811
:101C1000FFF7EAFD0246BB6D9342D2DB00E000BF56
:101C2000B868FFF70BFE0346002B40F01781504BBE
:101C30005A7B504B1A704E4B9A7B4E4B5A704C4B02
:101C4000DA7A4C4B9A704A4B1A7B4A4BDA70484B03
:101C50005A7A484B1A71464B9A7A464B5A71444B02
:101C6000DA79444B9A71424B1A7A424BDA71404B03
:101C70005A7D404B1A723E4B9A7D3E4B5A723C4BFA
:101C8000DA7C3C4B9A723A4B1A7D3A4BDA72384BFB
:101C90005A7C384B1A73364B9A7C364B5A73344BFA
:101CA000DA7B344B9A73324B1A7C324BDA73304BFB
:101CB0005A7F304B1A742E4B9A7F2E4B5A742C4BF2
:101CC000DA7E2C4B9A742A4B1A7F2A4BDA74284BF3
:101CD0005A7E284B1A75264B9A7E264B5A75244BF2
:101CE000DA7D244B9A75224B1A7E224BDA75204BF3
:101CF00093F825201F4B1A761D4B93F826201D4B79
:101D00005A761B4B93F823201A4B9A76184B93F86C
:101D10002420184BDA76164B93F82120154B1A77AE
:101D2000134B93F82220134B5A77114BDA7F114B48
:101D30009A770F4B93F820200E4BDA770C4B5B7998
:101D40000B4A927911461846FFF749FC0346A7F85B
:101D50004230B7F84230002B76D1054B1B78102B60
:101D60001FD100233B6518E0E4110020B487002058
:101D700030110020948700203B6D3B4A13441846E5
:101D8000FFF7F1FB3863396B386EFEF7B9FD3B6E38
:101D900004333B663B6D08333B653B6D1F2BEBDD2E
:101DA00052E0324B1B78082B17D10023FB6410E064
:101DB000FB6C2D4A13441846FFF7D5FB7863796B0B
:101DC000386EFEF79DFD3B6E04333B66FB6C0833BB
:101DD000FB64FB6C0F2BEBDD36E0244B1B780C2BEC
:101DE00017D10023BB6410E0BB6C1F4A1344184694
:101DF000FFF7B9FBB863B96B386EFEF781FD3B6E38
:101E000004333B66BB6C0833BB64BB6C172BEBDD48
:101E10001AE0164B1B78042B16D100237B6410E0CC
:101E20007B6C114A13441846FFF79DFBF863F96B6E
:101E3000386EFEF765FD3B6E04333B667B6C083302
:101E40007B647B6C072BEBDDB868FEF7D3F90346A8
:101E50001A460021B86802F023FC56E600BF00BF16
:101E60008037BD4680BD00BF948700203011002020
:101E700080B58AB000AF2E212948FFF729FCF86110
:101E8000FB690133264A134443211846FFF720FC1F
:101E9000B86100237B620CE0214A7B6A1344197805
:101EA00007F10C027B6A13440A461A707B6A0133FD
:101EB0007B627A6AFB699A42EEDB07F10C02FB69EE
:101EC000134400221A7000233B620DE03A6AFB695A
:101ED00013440133124AD15C3A463B6A13440A4622
:101EE0001A703B6A01333B623A6ABB699A42EDDB86
:101EF0003A46BB69134400221A7007F10C031846D6
:101F000002F088FA0346074A13603B46184602F07F
:101F100081FA0346044A136000BF2837BD4680BDDE
:101F2000E81100205C8700206087002080B500AFAA
:101F30004648FEF7D7FC0346642B10D94448FEF709
:101F4000D1FC0346642B0AD94048FEF7F1FC00217E
:101F50003E48FEF7D5FC00213D48FEF7D1FC3B484A
:101F6000FEF7C0FC03461A463A4B1A603848FEF7A3
:101F7000B9FC03461A46374B5A60FFF779FF354BD9
:101F80001A68354B1B689A4217DA334B1B68314A83
:101F900013602E48FEF7CCFC2E4B5B6819462C488C
:101FA000FEF7AEFC2B4B1B6819462848FEF7A8FC31
:101FB0002A4B1B680133294A1360264B5A68284B69
:101FC0001B689A4217DA264B1B68224A53601F4847
:101FD000FEF7AEFC1F4B1B6819461C48FEF790FC31
:101FE0001C4B5B6819461A48FEF78AFC1B4B1B68A2
:101FF00001331A4A1360194B1B68002B10DD4FF494
:102000007A7000F071FC1748FFF73EFB1648FFF7A7
:102010003BFBFFF747FB154B1B680133134A13606B
:102020000E4B1B68002B0ED14FF47A7000F05CFC55
:102030000F48FFF729FB0F48FFF726FB0E4B1B68E5
:1020400001330D4A136000BF80BD00BF008000084F
:1020500010800008848700205C8700209087002083
:1020600060870020F450000808510008000000209C
:10207000145100083C5100080400002080B5BEB097
:1020800000AF78600023FB6207F13003C422002117
:10209000184602F005FB0023FB6007F11003002245
:1020A0001A605A609A60DA601A615A611A8330487D
:1020B000FEF7EAFC2E492F48FEF79CFE00BF2C4994
:1020C0002D48FFF737F80346002BF8D007F12C0313
:1020D0001846FEF7D1FA07F12C032849184602F0FA
:1020E000A5FA07F12C031846FEF784F80346C7F853
:1020F000F43007F10C031846FEF7BEFA07F10C03A3
:10210000D7F8F4201E49184602F090FA07F10C03A4
:1021100017491846FEF76EFE00BF15491948FFF72C
:1021200009F80346002BF8D007F12C031049184694
:10213000FEF760FE00BF0E491348FEF7FBFF0346A3
:10214000002BF8D000BF0A491048FEF7F3FF034602
:10215000002BF8D000BF064A79680D48FEF720FF33
:102160000346002BF7D000BF00BFF837BD4680BD47
:102170005C110020605100089C510008A451000827
:102180000452000814520008185200082452000893
:102190002C52000880B582B000AF00F0FFFA00F0CA
:1021A000C7F800F077F900F021F900F049F9FEF7DF
:1021B000F7FB4E48FFF768FA4D494E48FEF7F6F92F
:1021C0004D48FFF761FA47F2305200214B4802F0C8
:1021D00067FA4A48FEF76EFA4948FFF755FAFFF7E3
:1021E000A5FE47F230520021444802F059FA454812
:1021F000FEF778FB0346B3F1FF3F03D101214148CD
:10220000FEF77EFB404B1B68022B0FD13E4B012299
:102210001A603C48FEF766FB034601337B60394891
:10222000FEF786FB79683748FEF76AFB3548FEF70C
:1022300059FB034603F00103002B07D13348FEF797
:1022400077FB02213148FEF75BFB0EE02D48FEF7DD
:1022500049FB034603F00103002B06D02B48FEF791
:1022600067FB01212948FEF74BFB294B1B68022B1A
:1022700006D12648FEF75CFB00212448FEF740FB10
:10228000244B1B681B68012B02D1234B234A1A6085
:10229000204B1B681B68022B02D11F4B204A1A607F
:1022A0001C4B1B681B68002B02D11B4B1D4A1A607C
:1022B0004FF47A7000F018FB47F2305200210F48BB
:1022C00002F0EEF90D48FFF7D9FE1748FFF7DCF9E9
:1022D000114B1B681A4615490848FFF7F7FB0E4BD0
:1022E0001B681846FFF7C4F8FEE700BF3852000825
:1022F000545200086052000868520008E81100209B
:102300007C52000800C00008000000200000010806
:1023100004000020080000208C8700200000020834
:1023200000000408000006089452000818870020E6
:1023300080B594B000AF07F1200330220021184689
:1023400002F0AEF907F10C0300221A605A609A609D
:10235000DA601A610023BB60224B1B6C214A43F0F8
:10236000805313641F4B1B6C03F08053BB60BB682E
:1023700000237B601C4B1B681B4A43F440431360E3
:10238000194B1B6803F440437B607B6802233B626C
:102390000123FB6210233B630023BB6307F120038F
:1023A000184601F04FF80346002B01D000F08CF8DE
:1023B0000F23FB6000233B6100237B610023BB6193
:1023C0000023FB6107F10C030021184601F0B2FA6B
:1023D0000346002B01D000F077F800BF5037BD4610
:1023E00080BD00BF003802400070004080B500AFE3
:1023F000114B124A1A60104B4FF4E1325A600E4BE7
:1024000000229A600C4B0022DA600B4B00221A610A
:10241000094B0C225A61084B00229A61064B00229C
:10242000DA61054801F034FD0346002B01D000F0CD
:102430004BF800BF80BD00BF5C11002000100140C0
:1024400080B500AF114B124A1A60104B4FF4E132C5
:102450005A600E4B00229A600C4B0022DA600B4B44
:1024600000221A61094B0C225A61084B00229A6122
:10247000064B0022DA61054801F00AFD0346002BF5
:1024800001D000F021F800BF80BD00BFA0110020E6
:102490000044004080B483B000AF00237B60094B50
:1024A0001B6B084A43F001031363064B1B6B03F0DD
:1024B00001037B607B6800BF0C37BD465DF8047B81
:1024C000704700BF0038024080B400AF72B600BF52
:1024D000FEE7000080B483B000AF00237B60104BA8
:1024E0005B6C0F4A43F4804353640D4B5B6C03F405
:1024F00080437B607B6800233B60094B1B6C084A70
:1025000043F080531364064B1B6C03F080533B6015
:102510003B6800BF0C37BD465DF8047B704700BFC9
:102520000038024080B58CB000AF786007F11C0322
:1025300000221A605A609A60DA601A617B681B6830
:102540003A4A934235D10023BB61394B5B6C384A20
:1025500043F010035364364B5B6C03F01003BB6114
:10256000BB6900237B61324B1B6B314A43F0010393
:1025700013632F4B1B6B03F001037B617B694FF4EB
:10258000C063FB6102233B6200237B620323BB62C7
:102590000723FB6207F11C031946264800F0CEFD15
:1025A00000220021252000F09EFA252000F0B7FA35
:1025B00038E07B681B68204A934233D100233B619B
:1025C0001B4B1B6C1A4A43F400331364184B1B6CEF
:1025D00003F400333B613B690023FB60144B1B6B2E
:1025E000134A43F001031363114B1B6B03F0010308
:1025F000FB60FB680C23FB6102233B6200237B62D0
:102600000323BB620723FB6207F11C031946094839
:1026100000F094FD00220021262000F064FA26201C
:1026200000F07DFA00BF3037BD4680BD001001408C
:1026300000380240000002400044004080B400AF77
:10264000FEE780B400AFFEE780B400AFFEE780B4E1
:1026500000AFFEE780B400AFFEE780B400AF00BF7C
:10266000BD465DF8047B704780B400AF00BFBD4637
:102670005DF8047B704780B400AF00BFBD465DF8D5
:10268000047B704780B500AF00F00EF900BF80BD3D
:1026900080B500AF0248FEF731FE00BF80BD00BF2D
:1026A0005C11002080B500AF0248FEF727FE00BF96
:1026B00080BD00BFA011002080B586B000AF78605B
:1026C000144A154BD31A7B617B693B61134B1B6822
:1026D000002B02D1114B124A1A60104B1A687B680A
:1026E00013443A699A4207D201F0F8FF03460C22DC
:1026F0001A604FF0FF3309E0084B1B68FB60074B83
:102700001A687B681344054A1360FB68184618373B
:10271000BD4680BD0000022000040000C0870020EC
:102720003089002080B400AF064BD3F88830054ACA
:1027300043F47003C2F8883000BFBD465DF8047BE7
:10274000704700BF00ED00E0DFF834D00D480E49BF
:102750000E4A002302E0D458C4500433C4188C42FB
:10276000F9D30B4A0B4C002301E013600432A24260
:10277000FBD3FFF7D7FF01F0B7FFFFF70BFD704763
:102780000000022000000020680000200C54000817
:102790006800002030890020FEE7000080B500AF0F
:1027A0000E4B1B680D4A43F4007313600B4B1B6800
:1027B0000A4A43F480631360084B1B68074A43F4DA
:1027C00080731360032000F083F90F2000F03CF8C1
:1027D000FFF780FE0023184680BD00BF003C02408A
:1027E00080B500AF134B4FF0FF321A62114B00223D
:1027F0001A62104B4FF0FF325A620E4B00225A629F
:102800000C4B4FF0FF321A610A4B00221A61094B40
:102810004FF0FF325A61074B00225A61054B4FF0CF
:10282000FF329A61034B00229A6100F005F8002301
:10283000184680BD0038024080B400AF00BFBD46DE
:102840005DF8047B7047000080B582B000AF78600F
:10285000124B1A68124B1B7819464FF47A73B3FB6C
:10286000F1F3B2FBF3F3184600F067F90346002BCF
:1028700001D001230EE07B680F2B0AD80022796873
:102880004FF0FF3000F02FF9064A7B6813600023F9
:1028900000E0012318460837BD4680BD0C0000202B
:1028A000140000201000002080B400AF064B1B78FD
:1028B0001A46064B1B681344044A136000BFBD460A
:1028C0005DF8047B704700BF14000020C48700201F
:1028D00080B400AF034B1B681846BD465DF8047B0F
:1028E000704700BFC487002080B584B000AF786017
:1028F000FFF7EEFFB8607B68FB60FB68B3F1FF3F5A
:1029000005D00A4B1B781A46FB681344FB6000BFD6
:10291000FFF7DEFF0246BB68D31AFA689A42F7D87F
:1029200000BF00BF1037BD4680BD00BF14000020AF
:1029300080B485B000AF78607B6803F00703FB606C
:102940000C4BDB68BB60BA684FF6FF031340BB60FB
:10295000FB681A02BB68134343F0BF6343F40033C0
:10296000BB60044ABB68D36000BF1437BD465DF846
:10297000047B704700ED00E080B400AF044BDB68DF
:102980001B0A03F007031846BD465DF8047B704739
:1029900000ED00E080B483B000AF0346FB7197F90F
:1029A0000730002B0BDBFB7903F01F02074997F977
:1029B00007305B09012000FA02F241F8232000BF32
:1029C0000C37BD465DF8047B704700BF00E100E0B6
:1029D00080B483B000AF03463960FB7197F90730CC
:1029E000002B0ADB3B68DAB20C4997F90730120179
:1029F000D2B20B4483F800230AE03B68DAB20849FC
:102A0000FB7903F00F03043B1201D2B20B441A7698
:102A100000BF0C37BD465DF8047B704700E100E065
:102A200000ED00E080B489B000AFF860B9607A6072
:102A3000FB6803F00703FB61FB69C3F10703042B89
:102A400028BF0423BB61FB690433062B02D9FB6951
:102A5000033B00E000237B614FF0FF32BB6902FAC9
:102A600003F3DA43BB681A407B699A404FF0FF31A9
:102A70007B6901FA03F3D9437B680B401343184683
:102A80002437BD465DF8047B7047000080B582B0F6
:102A900000AF78607B68013BB3F1807F01D30123F5
:102AA0000FE00A4A7B68013B53600F214FF0FF3073
:102AB000FFF78EFF054B00229A60044B07221A6035
:102AC000002318460837BD4680BD00BF10E000E077
:102AD00080B582B000AF78607868FFF729FF00BF4B
:102AE0000837BD4680BD80B586B000AF0346B960EB
:102AF0007A60FB7300237B61FFF73EFF78617A68A1
:102B0000B9687869FFF78EFF024697F90F301146D2
:102B10001846FFF75DFF00BF1837BD4680BD80B582
:102B200082B000AF0346FB7197F907301846FFF7F4
:102B300031FF00BF0837BD4680BD80B582B000AF11
:102B400078607868FFF7A2FF034618460837BD464D
:102B500080BD000080B586B000AFF860B960C7E9FD
:102B600000230123FB75234B1B7E012B01D1022384
:102B70003BE0204B01221A764CF2503000F07CF8FA
:102B80000346FB75FB7D002B2BD1FB68002B05D189
:102B90003B781946B86800F027F916E0FB68012B6E
:102BA00005D13B881946B86800F0FAF80DE0FB68DB
:102BB000022B05D13B681946B86800F0CFF804E055
:102BC000D7E90023B86800F097F84CF2503000F0D5
:102BD00053F80346FB75084B1B69074A23F00103B2
:102BE0001361044B00221A76FB7D18461837BD4648
:102BF00080BD00BFC8870020003C024080B483B085
:102C000000AF0023FB710B4B1B69002B0BDA094B48
:102C1000094A5A60074B094A5A60064B1B69002B48
:102C200001DA0123FB71FB7918460C37BD465DF8CC
:102C3000047B7047003C024023016745AB89EFCD20
:102C400080B400AF054B1B69044A43F00043136195
:102C500000231846BD465DF8047B7047003C0240E7
:102C600080B400AF034BDB691846BD465DF8047BBA
:102C7000704700BFC887002080B584B000AF78607F
:102C80000023FB601A4B0022DA61FFF721FEF86097
:102C900010E07B68B3F1FF3F0CD07B68002B07D0BE
:102CA000FFF716FE0246FB68D31A7A689A4201D2F1
:102CB000032319E00F4BDB6803F48033002BE8D1CA
:102CC0000C4BDB6803F00103002B02D0094B0122FF
:102CD000DA60084BDB6803F4F973002B03D000F0D3
:102CE000A5F8012300E0002318461037BD4680BD3B
:102CF000C8870020003C024080B485B000AFF86077
:102D0000C7E90023144B1B69134A23F44073136172
:102D1000114B1B69104A43F4407313610E4B1B693E
:102D20000D4A43F001031361FB683A681A60BFF370
:102D30006F8F00BFD7E900014FF000024FF0000392
:102D40000A000023F968043113460B6000BF1437F2
:102D5000BD465DF8047B7047003C024080B483B000
:102D600000AF786039600D4B1B690C4A23F4407347
:102D700013610A4B1B69094A43F400731361074B43
:102D80001B69064A43F0010313617B683A681A60C5
:102D900000BF0C37BD465DF8047B7047003C024025
:102DA00080B483B000AF78600B467B800D4B1B690D
:102DB0000C4A23F4407313610A4B1B69094A43F41C
:102DC00080731361074B1B69064A43F001031361CB
:102DD0007B687A881A8000BF0C37BD465DF8047B9B
:102DE000704700BF003C024080B483B000AF786001
:102DF0000B46FB700C4B1B690B4A23F440731361A9
:102E0000094B094A1B691361074B1B69064A43F0CA
:102E1000010313617B68FA781A7000BF0C37BD4656
:102E20005DF8047B704700BF003C024080B400AFF7
:102E30002F4BDB6803F01003002B08D02D4BDB6910
:102E400043F010032B4AD361294B1022DA60284B40
:102E5000DB6803F02003002B08D0264BDB6943F02E
:102E60000803244AD361224B2022DA60204BDB681E
:102E700003F04003002B08D01E4BDB6943F0040332
:102E80001C4AD3611A4B4022DA60194BDB6803F00D
:102E90008003002B08D0174BDB6943F00203154A6F
:102EA000D361134B8022DA60114BDB6803F480732B
:102EB000002B09D00F4BDB6943F001030D4AD361AE
:102EC0000B4B4FF48072DA60094BDB6803F00203AE
:102ED000002B08D0074BDB6943F02003054AD36180
:102EE000034B0222DA6000BFBD465DF8047B7047E9
:102EF000003C0240C887002080B584B000AF7860F5
:102F000039600123FB730023BB60314B1B7E012B17
:102F100001D1022358E02E4B01221A764CF2503098
:102F2000FFF7AAFE0346FB73FB7B002B48D13B68EF
:102F30004FF0FF321A607B681B68012B15D17B684C
:102F40001B69DAB27B685B681946104600F044F8EA
:102F50004CF25030FFF790FE0346FB731D4B1B698C
:102F60001C4A23F00403136128E07B689B68BB6064
:102F70001CE07B681B69DBB21946B86800F050F8AA
:102F80004CF25030FFF778FE0346FB73114B1B6980
:102F9000104A23F0FA031361FB7B002B03D03B683C
:102FA000BA681A600AE0BB680133BB607B68DA6804
:102FB0007B689B681344BA689A42DAD300F078F8C9
:102FC000034B00221A76FB7B18461037BD4680BDA6
:102FD000C8870020003C024080B483B000AF0346A5
:102FE0003960FB710D4B1B690C4A23F4407313616C
:102FF0000A4B1B69094A43F004031361074B1A6922
:10300000FB791B021343054A43F48033136100BF6D
:103010000C37BD465DF8047B704700BF003C0240A2
:1030200080B485B000AF78600B46FB700023FB6076
:10303000FB78002B02D10023FB6010E0FB78012B12
:1030400003D14FF48073FB6009E0FB78022B03D1BE
:103050004FF40073FB6002E04FF44073FB60134BCE
:103060001B69124A23F440731361104B1A690F490C
:10307000FB6813430B610D4B1B690C4A23F0F803EB
:1030800013610A4B1A697B68DB001343074A43F05C
:1030900002031361054B1B69044A43F48033136137
:1030A00000BF1437BD465DF8047B7047003C02400A
:1030B00080B400AF204B1B6803F40073002B17D0C3
:1030C0001D4B1B681C4A23F4007313601A4B1B68CA
:1030D000194A43F400631360174B1B68164A23F424
:1030E00000631360144B1B68134A43F400731360AE
:1030F000114B1B6803F48063002B17D00E4B1B6829
:103100000D4A23F4806313600B4B1B680A4A43F497
:1031100080531360084B1B68074A23F480531360E5
:10312000054B1B68044A43F48063136000BFBD462F
:103130005DF8047B704700BF003C024080B489B05A
:1031400000AF7860396000237B6100233B6100237E
:10315000BB610023FB6159E10122FB6902FA03F321
:103160007B613B681B687A6913403B613A697B6904
:103170009A4240F048813B685B6803F00303012BEF
:1031800005D03B685B6803F00303022B30D17B68FA
:103190009B68BB61FB695B00032202FA03F3DB431C
:1031A000BA691340BB613B68DA68FB695B0002FAED
:1031B00003F3BA691343BB617B68BA699A607B68A1
:1031C0005B68BB610122FB6902FA03F3DB43BA6966
:1031D0001340BB613B685B681B0903F00102FB699C
:1031E00002FA03F3BA691343BB617B68BA695A6098
:1031F0003B685B6803F00303032B17D07B68DB6835
:10320000BB61FB695B00032202FA03F3DB43BA698B
:103210001340BB613B689A68FB695B0002FA03F3E9
:10322000BA691343BB617B68BA69DA603B685B6863
:1032300003F00303022B23D1FB69DA087B68083211
:1032400053F82230BB61FB6903F007039B000F2298
:1032500002FA03F3DB43BA691340BB613B681A69A6
:10326000FB6903F007039B0002FA03F3BA691343F7
:10327000BB61FB69DA087B680832B96943F8221040
:103280007B681B68BB61FB695B00032202FA03F3E6
:10329000DB43BA691340BB613B685B6803F0030220
:1032A000FB695B0002FA03F3BA691343BB617B68F5
:1032B000BA691A603B685B6803F44033002B00F086
:1032C000A2800023FB60574B5B6C564A43F480435B
:1032D0005364544B5B6C03F48043FB60FB68524ABD
:1032E000FB699B08023352F82330BB61FB6903F092
:1032F00003039B000F2202FA03F3DB43BA69134076
:10330000BB617B68494A934219D07B68484A934223
:1033100013D07B68474A93420DD07B68464A93425C
:1033200007D07B68454A934201D1042308E0072374
:1033300006E0032304E0022302E0012300E000236F
:10334000FA6902F0030292009340BA691343BB6129
:103350003549FB699B080233BA6941F82320384B91
:103360009B68BB613B69DB43BA691340BB613B6847
:103370005B6803F48013002B03D0BA693B691343E5
:10338000BB612F4ABB6993602D4BDB68BB613B6916
:10339000DB43BA691340BB613B685B6803F400130D
:1033A000002B03D0BA693B691343BB61244ABB6954
:1033B000D360234B5B68BB613B69DB43BA69134055
:1033C000BB613B685B6803F40033002B03D0BA6930
:1033D0003B691343BB611A4ABB695360184B1B68B6
:1033E000BB613B69DB43BA691340BB613B685B6807
:1033F00003F48033002B03D0BA693B691343BB61EC
:103400000F4ABB691360FB690133FB61FB690F2B3A
:103410007FF6A2AE00BF00BF2437BD465DF8047B37
:10342000704700BF003802400038014000000240F1
:103430000004024000080240000C0240001002405C
:10344000003C014080B586B000AF78607B68002BFF
:1034500001D1012367E27B681B6803F00103002BA5
:1034600075D0884B9B6803F00C03042B0CD0854B64
:103470009B6803F00C03082B12D1824B5B6803F4AA
:103480008003B3F5800F0BD17E4B1B6803F4003330
:10349000002B5BD07B685B68002B57D1012342E295
:1034A0007B685B68B3F5803F06D1764B1B68754A35
:1034B00043F4803313601DE07B685B68B3F5A02F95
:1034C0000CD1704B1B686F4A43F4802313606D4B23
:1034D0001B686C4A43F4803313600BE0694B1B6834
:1034E000684A23F480331360664B1B68654A23F4F3
:1034F000802313607B685B68002B13D0FFF7E8F92B
:10350000386108E0FFF7E4F902463B69D31A642BFF
:1035100001D9032307E25B4B1B6803F40033002B44
:10352000F0D014E0FFF7D4F9386108E0FFF7D0F9E4
:1035300002463B69D31A642B01D90323F3E1514BB3
:103540001B6803F40033002BF0D100E000BF7B6860
:103550001B6803F00203002B63D04A4B9B6803F007
:103560000C03002B0BD0474B9B6803F00C03082B7C
:103570001CD1444B5B6803F48003002B16D1414BF4
:103580001B6803F00203002B05D07B68DB68012B6E
:1035900001D00123C7E13B4B1B6823F0F8027B6895
:1035A0001B69DB00374913430B603AE07B68DB683B
:1035B000002B20D0344B01221A60FFF789F93861C3
:1035C00008E0FFF785F902463B69D31A022B01D9BF
:1035D0000323A8E12B4B1B6803F00203002BF0D060
:1035E000284B1B6823F0F8027B681B69DB00254928
:1035F00013430B6015E0244B00221A60FFF768F9B3
:10360000386108E0FFF764F902463B69D31A022BE0
:1036100001D9032387E11B4B1B6803F00203002B36
:10362000F0D17B681B6803F00803002B36D07B6861
:103630005B69002B16D0154B01221A60FFF748F981
:10364000386108E0FFF744F902463B69D31A022BC0
:1036500001D9032367E10B4B5B6F03F00203002BDF
:10366000F0D01BE0094B00221A60FFF731F93861F6
:103670000EE0FFF72DF902463B69D31A022B07D95A
:10368000032350E10038024000004742800E4742C9
:10369000884B5B6F03F00203002BEAD17B681B6849
:1036A00003F00403002B00F097800023FB75814B8F
:1036B0001B6C03F08053002B0FD10023BB607D4BAC
:1036C0001B6C7C4A43F0805313647A4B1B6C03F0F1
:1036D0008053BB60BB680123FB75774B1B6803F409
:1036E0008073002B18D1744B1B68734A43F48073AA
:1036F0001360FFF7EDF8386108E0FFF7E9F80246DC
:103700003B69D31A022B01D903230CE16A4B1B68D6
:1037100003F48073002BF0D07B689B68012B06D1EB
:10372000644B1B6F634A43F0010313671CE07B6823
:103730009B68052B0CD15F4B1B6F5E4A43F0040363
:1037400013675C4B1B6F5B4A43F0010313670BE08D
:10375000584B1B6F574A23F001031367554B1B6FE0
:10376000544A23F0040313677B689B68002B15D031
:10377000FFF7AEF838610AE0FFF7AAF802463B69A6
:10378000D31A41F28832934201D90323CBE0494B4B
:103790001B6F03F00203002BEED014E0FFF798F844
:1037A00038610AE0FFF794F802463B69D31A41F208
:1037B0008832934201D90323B5E03E4B1B6F03F0DF
:1037C0000203002BEED1FB7D012B05D1394B1B6C85
:1037D000384A23F0805313647B689B69002B00F008
:1037E000A180344B9B6803F00C03082B5CD07B68F2
:1037F0009B69022B41D1314B00221A60FFF768F818
:10380000386108E0FFF764F802463B69D31A022BDF
:1038100001D9032387E0274B1B6803F00073002BBB
:10382000F0D17B68DA697B681B6A1A437B685B6A44
:103830009B011A437B689B6A5B08013B1B041A438C
:103840007B68DB6A1B061B4913434B601B4B012241
:103850001A60FFF73DF8386108E0FFF739F80246D3
:103860003B69D31A022B01D903235CE0114B1B687F
:1038700003F00073002BF0D054E0104B00221A60CC
:10388000FFF726F8386108E0FFF722F802463B69A7
:10389000D31A022B01D9032345E0064B1B6803F022
:1038A0000073002BF0D13DE07B689B69012B07D1B1
:1038B000012338E0003802400070004060004742B9
:1038C0001B4B5B68FB607B689B69012B28D0FB6806
:1038D00003F480027B68DB699A4221D1FB6803F024
:1038E0003F027B681B6A9A421AD1FA6847F6C07396
:1038F00013407A68526A9201934211D1FB6803F433
:1039000040327B689B6A5B08013B1B049A4207D1EB
:10391000FB6803F070627B68DB6A1B069A4201D089
:10392000012300E0002318461837BD4680BD00BFC4
:103930000038024080B584B000AF786039607B68A1
:10394000002B01D10123CCE0684B1B6803F0070377
:103950003A689A420CD9654B3A68D2B21A70634BF6
:103960001B6803F007033A689A4201D00123B8E0CC
:103970007B681B6803F00203002B20D07B681B6868
:1039800003F00403002B05D0594B9B68584A43F4BD
:10399000E05393607B681B6803F00803002B05D09D
:1039A000534B9B68524A43F460439360504B9B686F
:1039B00023F0F0027B689B684D4913438B607B6862
:1039C0001B6803F00103002B44D07B685B68012B6C
:1039D00007D1474B1B6803F40033002B19D1012397
:1039E0007FE07B685B68022B03D07B685B68032BFE
:1039F00007D13F4B1B6803F00073002B09D1012353
:103A00006FE03B4B1B6803F00203002B01D1012345
:103A100067E0374B9B6823F003027B685B6834499F
:103A200013438B60FEF754FFF8600AE0FEF750FF87
:103A30000246FB68D31A41F28832934201D903232C
:103A40004FE02B4B9B6803F00C027B685B689B008C
:103A50009A42EBD1254B1B6803F007033A689A4260
:103A60000CD2224B3A68D2B21A70204B1B6803F07A
:103A700007033A689A4201D0012332E07B681B6851
:103A800003F00403002B08D0194B9B6823F4E05289
:103A90007B68DB68164913438B607B681B6803F007
:103AA0000803002B09D0124B9B6823F460427B680B
:103AB0001B69DB000E4913438B6000F021F80246BE
:103AC0000B4B9B681B0903F00F030A49CB5C22FADE
:103AD00003F3094A1360094B1B681846FEF7B4FE4E
:103AE000002318461037BD4680BD00BF003C024091
:103AF00000380240B05200080C00002010000020E6
:103B00002DE9B04F90B000AF00237B630023FB632F
:103B100000233B630023BB63594B9B6803F00C03FA
:103B2000082B0DD0082B00F2A180002B02D0042B13
:103B300003D09BE0534BBB639BE0534BBB6398E0CC
:103B40004F4B5B6803F03F037B634D4B5B6803F4B3
:103B50008003002B28D04A4B5B689B0900223B6204
:103B60007A623B6AC3F308000021474B03FB01F272
:103B7000002300FB03F31344434AA0FB0212FA6242
:103B80000A46BA62FA6A1344FB627B6B0022BB618D
:103B9000FA61D7E90623D7E90A01FCF789FB024657
:103BA0000B461346FB6353E0354B5B689B090022D1
:103BB0003B617A613B69C3F3080A4FF0000B524640
:103BC0005B464FF000004FF00001590141EAD2611D
:103BD000500102460B46B2EB0A0863EB0B094FF0AB
:103BE00000024FF000034FEA891343EA98634FEA5B
:103BF0008812B2EB080463EB09054FF000024FF0A6
:103C00000003EB0043EA5473E20014461D4614EB34
:103C10000A033B6045EB0B037B604FF000024FF063
:103C20000003D7E9004529468B02214643EA915318
:103C300021468A02104619467B6B0022BB60FA605F
:103C4000D7E90223FCF734FB02460B461346FB631D
:103C50000B4B5B681B0C03F0030301335B003B63FE
:103C6000FA6B3B6BB2FBF3F3BB6302E0054BBB6348
:103C700000BFBB6B18464037BD46BDE8B08F00BFE4
:103C8000003802400024F40040787D0180B400AF89
:103C9000034B1B681846BD465DF8047B704700BFA8
:103CA0000C00002080B500AFFFF7F0FF0246054B87
:103CB0009B689B0A03F007030349CB5C22FA03F3DA
:103CC000184680BD00380240C052000880B500AFE1
:103CD000FFF7DCFF0246054B9B685B0B03F0070315
:103CE0000349CB5C22FA03F3184680BD003802403A
:103CF000C052000880B582B000AFFEF7E9FD7860E1
:103D00005D4B1B685C4A43F00103136008E0FEF75B
:103D1000DFFD02467B68D31A022B01D90323A7E0FB
:103D2000554B1B6803F00203002BF0D0524B1B686D
:103D3000514A43F080031360FEF7CAFD78604E4B92
:103D400000229A600AE0FEF7C3FD02467B68D31AA0
:103D500041F28832934201D9032389E0464B9B68A4
:103D600003F00C03002BEED1FEF7B2FD7860424B5E
:103D70001B68414A23F45023136008E0FEF7A8FDB6
:103D800002467B68D31A642B01D9032370E03A4BB7
:103D90001B6803F40033002BF0D1FEF799FD786027
:103DA000354B1B68344A23F08073136008E0FEF73C
:103DB0008FFD02467B68D31A022B01D9032357E0FB
:103DC0002D4B1B6803F00073002BF0D1FEF780FD34
:103DD0007860294B1B68284A23F08063136008E051
:103DE000FEF776FD02467B68D31A022B01D9032326
:103DF0003EE0214B1B6803F00063002BF0D11E4B0B
:103E00001E4A5A601C4B1E4AC3F884201A4BDB68BA
:103E1000194A23F4F853D360174BDB68164A23F48E
:103E20000053D360144BDB68134A43F41F03D36081
:103E3000114BDB68104A43F40013D3600E4B5B6FE9
:103E40000D4A23F0010353670B4B5B6F0A4A43F0A3
:103E5000807353670B4B0C4A1A600C4B1B68184657
:103E6000FEF7F2FC0346002B01D0012300E0002303
:103E700018460837BD4680BD0038024010300004A7
:103E8000103000200C0000200024F400100000205E
:103E900080B582B000AF78607B68002B01D1012330
:103EA0003FE07B6893F83D30DBB2002B06D17B68A6
:103EB000002283F83C207868FEF734FB7B682422DC
:103EC00083F83D207B681B68DA687B681B6822F4F6
:103ED0000052DA60786800F029F87B681B681A697C
:103EE0007B681B6822F490421A617B681B685A69E0
:103EF0007B681B6822F02A025A617B681B68DA68BB
:103F00007B681B6842F40052DA607B6800221A6406
:103F10007B68202283F83D207B68202283F83E20A6
:103F2000002318460837BD4680BD00002DE9B04F7C
:103F3000C0B000AFC7F8F400D7F8F4301B681B69B5
:103F400023F44050D7F8F430D968D7F8F4301A6821
:103F500040EA01031361D7F8F4309A68D7F8F430D7
:103F60001B691A43D7F8F4305B691A43D7F8F43069
:103F7000DB691343C7F8F830D7F8F4301B68DB6807
:103F800023F4164121F00C01D7F8F4301A68D7F861
:103F9000F8300B43D360D7F8F4301B685B6923F427
:103FA0004070D7F8F4309969D7F8F4301A6840EACD
:103FB00001035361D7F8F4301A688F4B9A4205D049
:103FC000D7F8F4301A688D4B9A4204D1FFF77EFE81
:103FD000C7F8FC0003E0FFF765FEC7F8FC00D7F860
:103FE000F430DB69B3F5004F40F00C81D7F8FC30BA
:103FF0000022C7F8E830C7F8EC20D7E93A45224656
:104000002B469118B9655B41FB65D7E9162321461C
:1040100012EB0108294643EB01094FF000024FF073
:1040200000034FEAC90343EA58734FEAC8029046B7
:104030009946234618EB0303C7F8E0302B4649EBBB
:104040000303C7F8E430D7F8F4305B680022C7F800
:10405000D830C7F8DC20D7E936120B46DB183B65B1
:10406000134642EB03037B65D7E91423D7E93801F4
:10407000FCF71EF902460B46614BA3FB02235B09CA
:104080001C01D7F8FC300022C7F8D030C7F8D42084
:10409000D7E9348942464B469118B9645B41FB64C9
:1040A000D7E91223414612EB010A494643EB010BC3
:1040B0004FF000024FF000034FEACB0343EA5A737C
:1040C0004FEACA0292469B4643461AEB0303C7F8DF
:1040D000C8304B464BEB0303C7F8CC30D7F8F4306D
:1040E0005B680022C7F8C030C7F8C420D7E9301297
:1040F0000B46DB183B64134642EB03037B64D7E9B2
:104100001023D7E93201FCF7D3F802460B461146DB
:104110003B4BA3FB01235B09642202FB03F3CB1A95
:10412000DB0003F13202364BA3FB02235B095B0089
:1041300003F4F8731C44D7F8FC300022C7F8B830F9
:10414000C7F8BC20D7E92E8942464B469118B9637F
:104150005B41FB63D7E90E23414651183963494659
:104160004B417B634FF000024FF00003D7E90CABEB
:104170005946CB00514643EA51735146CA00104696
:104180001946034642469B18C7F8B0304B460A46CC
:1041900042EB0303C7F8B430D7F8F4305B68002271
:1041A000C7F8A830C7F8AC20D7E92A120B46DB18AD
:1041B000BB62134642EB0303FB62D7E90A23D7E94C
:1041C0002C01FCF775F802460B460D4BA3FB0213BE
:1041D0005B09642101FB03F3D31ADB003233084A85
:1041E000A2FB03235B0903F00702D7F8F4301B6836
:1041F00022449A6006E100BF001001400014014013
:104200001F85EB51D7F8FC300022C7F8A030C7F863
:10421000A420D7E9288942464B46911839625B4170
:104220007B62D7E9082341465418494643EB010510
:104230004FF000024FF00003EB0043EA5473E2003A
:1042400014461D464346E318C7F898304B4645EBE5
:104250000303C7F89C30D7F8F4305B680022C7F836
:104260009030C7F894204FF000024FF00003D7E9D8
:10427000244529468B00214643EA917321468A0052
:10428000D7E92601FCF714F802460B46604BA3FB66
:1042900002235B091C01D7F8FC300022C7F88830E4
:1042A000C7F88C20D7E9228942464B469118B9615C
:1042B0005B41FB61D7E90623414651183961494604
:1042C0004B417B614FF000024FF00003D7E904AB94
:1042D0005946CB00514643EA51735146CA00104635
:1042E0001946034642469B18C7F880304B460A469B
:1042F00042EB0303C7F88430D7F8F4305B68002240
:10430000BB67FA674FF000024FF00003D7E91E8940
:1043100049468B00414643EA917341468A00D7E9FA
:104320002001FBF7C5FF02460B461146384BA3FBA5
:1043300001235B09642202FB03F3CB1A1B01323316
:10434000334AA2FB03235B0903F0F0031C44D7F8B4
:10435000FC3000223B677A67D7E91C8942464B460E
:104360009118B9605B41FB60D7E9022341465118BF
:10437000396049464B417B604FF000024FF000032B
:10438000D7E900AB5946CB00514643EA5173514639
:10439000CA0010461946034642469B18BB664B4668
:1043A0000A4642EB0303FB66D7F8F4305B68002251
:1043B0003B667A664FF000024FF00003D7E9188998
:1043C00049468B00414643EA917341468A00D7E94A
:1043D0001A01FBF76DFF02460B460D4BA3FB0213C0
:1043E0005B09642101FB03F3D31A1B013233084A32
:1043F000A2FB03235B0903F00F02D7F8F4301B681C
:1044000022449A6000BF07F58077BD46BDE8B08FB3
:104410001F85EB510A22002100F082B8012B2DE903
:10442000F04701D0242B06D900F058F91623036079
:104430000020BDE8F087DFF8E4C00D462E4615F8F1
:10444000014B1CF8047017F00807F7D12D2C32D15E
:104450002C780127B51C002B5BD0102B09D1302CF8
:1044600007D12C7804F0DF04582C4DD16C78102340
:10447000023507F1004808F1FF384FF0000EB8FB95
:10448000F3F9764603FB198AA4F1300CBCF1090F4D
:1044900016D86446A34224DDBEF1FF3F08D0B145E3
:1044A0001CD301D1A24519DB06FB03464FF0010ED8
:1044B00015F8014BE8E72B2C04BF2C78B51CCAE794
:1044C000A4F1410CBCF1190F01D8373CE2E7A4F18B
:1044D000610CBCF1190F04D8573CDBE74FF0FF3EED
:1044E000E6E7BEF1FF3F05D122230360464642B90D
:1044F00030469EE707B17642002AF9D0BEF1000FA0
:1045000000D0691E1160F3E73024002BB1D10823DD
:10451000AFE7302CA5D00A23ABE700BFC952000893
:1045200013460A46014602480068FFF777BF00BFFE
:10453000640000202DE9F043364F86460D4628469C
:1045400015F8014B3E5D16F00806F8D12D2C30D140
:104550002C780126851C002B57D0102B09D1302C2C
:1045600007D1287800F0DF00582849D16C78102353
:1045700002354FF0FF380027B8FBF3F803FB08F9CA
:104580006FEA09093846A4F1300CBCF1090F15D8BF
:104590006446A34223DDB7F1FF3F07D080451BD31C
:1045A00001D1A14518DB00FB0340012715F8014BA1
:1045B000E9E72B2C04BF2C78851CCCE7A4F1410C37
:1045C000BCF1190F01D8373CE3E7A4F1610CBCF151
:1045D000190F04D8573CDCE74FF0FF37E6E77B1CA8
:1045E00006D12223CEF80030384632B9BDE8F08338
:1045F00006B14042002AF9D007B1691E1160F5E703
:104600003024002BB5D10823B3E7302CA9D00A23DE
:10461000AFE700BFC952000813460A4601460248E8
:104620000068FFF787BF00BF640000200EB400B52C
:104630009CB01DAB029006906FF0004109480791B5
:104640000491094953F8042B05910068019302A9CC
:1046500000F0C2F9029B00221A701CB05DF804EB56
:1046600003B07047640000200802FFFF884210B5C5
:1046700001EB020402D98442234607D8431EA1421B
:1046800008D011F8012B03F8012FF8E70244014686
:104690008A4200D110BD13F8014D02F8014DF7E731
:1046A00002440346934200D1704703F8011BF9E727
:1046B0000A7870B56AB970BD9A4209D10C460546B0
:1046C00014F8013F002BF6D015F8016F9E42F7D089
:1046D00001300378002BEFD11846ECE7014B186846
:1046E000704700BF6400002070B50D4D0D4C641B79
:1046F000A4100026A64209D10B4D0C4C00F050FC32
:10470000641BA4100026A64205D170BD55F8043BD9
:1047100098470136EEE755F8043B98470136F2E733
:104720000454000804540008045400080854000805
:104730007047704737B5002944D051F8043C0190C8
:10474000002BA1F10404B8BFE41800F0DFF81E4A02
:104750000198136833B96360146003B0BDE830405A
:1047600000F0DAB8A34208D9256861198B4201BF6D
:1047700019685B6849192160EDE71A465B680BB15F
:10478000A342FAD911685518A5420BD124682144D7
:104790005418A3421160E0D11C685B6853600C445C
:1047A0001460DAE702D90C230360D6E725686119A3
:1047B0008B4204BF19685B68636004BF49192160BC
:1047C0005460CAE703B030BD2889002070B50E4E92
:1047D0000C463168054611B900F08CFB306021466B
:1047E000284600F087FB431C0AD0C41C24F00304B5
:1047F000A04207D0211A284600F07CFB013001D1ED
:104800004FF0FF34204670BD2C8900202DE9F8437D
:10481000CD1C25F0030508350C2D38BF0C25002DC7
:10482000074601DBA94205D90C233B600026304630
:10483000BDE8F883DFF8D08000F068F8D8F80030E1
:104840001C465CBB29463846FFF7C0FF431C0446A4
:1048500055D1D8F800402646002E45D1002C48D02E
:1048600023683146384604EB030900F043FB8145D9
:104870003FD121686D1A29463846FFF7A7FF01305E
:1048800037D023682B442360D8F80030002B38D071
:104890005A68A2422BD100225A600FE02268521BB4
:1048A0001FD40B2A17D96119A342256018BF59607C
:1048B000636808BFC8F8001062514B60384604F1C5
:1048C0000B0600F029F826F00706231DF21AAED0D9
:1048D0009B1BA350ABE7A3426268DDD1C8F8002060
:1048E000ECE723466468ACE734467668B4E71346E1
:1048F000CCE70C233B60384600F00EF897E72560C4
:10490000DCE75B60FFDE00BF288900200148FFF77D
:104910000FBF00BF248900200148FFF70ABF00BF76
:10492000248900202DE9F0478E681F46BE420B689F
:1049300082460C4690462CD88A8912F4906F26D075
:104940006569096905EB4505A3EB010905EBD5751B
:104950007B1C4B446D109D4238BF1D46530527D527
:104960002946FFF753FF064660B321694A4600F027
:10497000D1FAA38923F4906343F08003A3812661D5
:1049800065614E44A5EB09052660A5603E46BE4222
:1049900000D93E46206832464146FFF767FEA368CD
:1049A0009B1BA3602368334423600020BDE8F0878D
:1049B0002A4600F0BDFA06460028E0D1216950469B
:1049C000FFF7B8FE0C23CAF80030A38943F0400378
:1049D000A3814FF0FF30E9E72DE9F04F98468B892E
:1049E0001B069DB007460D4614460ED50B6963B9EC
:1049F0004021FFF70BFF2860286120B90C233B60A2
:104A00004FF0FF30D0E040236B6100230993202357
:104A10008DF82930CDF80C803023DFF8A4818DF893
:104A20002A304FF0010923469A4613F8012B0AB1A8
:104A3000252AF9D1BAEB040B0BD05B462246294656
:104A40003846FFF76FFF013000F0A980099A5A44F9
:104A500009929AF80030002B00F0A18000234FF05B
:104A6000FF32CDE905230AF1010A049307938DF87B
:104A700053301A935446052214F8011B5048FBF793
:104A8000C7FB049AD8B9D00644BF20238DF8533011
:104A9000110744BF2B238DF853309AF800302A2B8E
:104AA00015D0079A544600204FF00A0C214611F801
:104AB000013B303B092B4DD9B0B1079214E0A0EB7C
:104AC000080309FA03F313430493A246D2E7039BB6
:104AD000191D1B680391002BBBBF5B4242F0020211
:104AE00007930793B8BF049223782E2B0CD16378D9
:104AF0002A2B34D1039B1A1D1B680392002BB8BFCD
:104B00004FF0FF3302340593DFF8C4A0217803226D
:104B10005046FBF77DFB38B1049BA0EB0A00402216
:104B2000824013430134049314F8011B25488DF887
:104B300028100622FBF76CFB002838D0224B1BBB49
:104B4000039B073323F0070308330393099B334484
:104B5000099368E70CFB02320C460120A6E700230C
:104B60000134059319464FF00A0C204610F8012B2A
:104B7000303A092A03D9002BC6D00591C4E70CFBB3
:104B8000012104460123F0E703AB00932A460F4BB3
:104B900004A93846AFF30080421C0646D6D1AB8943
:104BA0005B063FF52DAF09981DB0BDE8F08F03AB54
:104BB00000932A46054B04A9384600F079F8EBE744
:104BC000C9530008D353000800000000254900081D
:104BD000CF5300082DE9F047164699468A680B69BD
:104BE000DDF820809342B8BF1346336091F843202C
:104BF00007460C460AB1013333602368990642BF69
:104C0000336802333360256815F0060506D104F1D8
:104C1000190AE36832689B1AAB4226DC94F84320F9
:104C2000131E226818BF012392062BD404F14302FD
:104C300049463846C04701301ED02368226903F038
:104C40000603042B02BFE5683368ED1AA3680CBFA6
:104C500025EAE57500259342C4BF9B1AED1800268E
:104C60001A34B5421AD1002008E0012352464946C1
:104C70003846C047013003D14FF0FF30BDE8F08720
:104C80000135C6E7E1185A1C302081F84300224460
:104C900094F8451082F843100233C7E701232246F7
:104CA00049463846C0470130E6D00136D9E7000012
:104CB0002DE9FF470F7E0C9D782F914680460C46CC
:104CC0009A4601F1430207D8622F0AD8002F00F05C
:104CD000D480582F00F0C08004F1420584F842705F
:104CE0003AE0A7F16303152BF6D801A151F823F0A0
:104CF000494D00085D4D0008D94C0008D94C00080A
:104D0000D94C0008D94C00085D4D0008D94C00086A
:104D1000D94C0008D94C0008D94C0008614E000855
:104D2000894D00081B4E0008D94C0008D94C0008DA
:104D3000834E0008D94C0008894D0008D94C000862
:104D4000D94C0008234E00082B681A1D1B682A60E6
:104D500004F1420584F8423001239FE020682B686B
:104D6000070603F10401296001D51E6803E0460629
:104D7000FBD5B3F90060002E03DA2D23764284F8C8
:104D800043305A480A2312E02B682068191D296015
:104D9000050601D51E6802E04106FBD51E88534872
:104DA0006F2F0CBF08230A23002184F84310656885
:104DB000A560002DA2BF216821F0040121600EB979
:104DC000002D4BD01546B6FBF3F103FB1167C75D11
:104DD00005F8017D3746BB420E46F4D9082B0BD1AE
:104DE0002368DE0708D5236961689942DEBF302356
:104DF00005F8013C05F1FF35521B2261CDF800A0FA
:104E00004B4603AA21464046FFF7E4FE01304AD153
:104E10004FF0FF3004B0BDE8F087236843F0200373
:104E200023603348782784F84570236829681F0673
:104E300051F8046B02D45F0648BFB6B2DF0748BF23
:104E400043F02003296048BF23601EB9236823F084
:104E5000200323601023A7E72448E4E71546BDE7B5
:104E60002B6826686169181D286035061B6801D506
:104E7000196002E07006FBD51980002323611546F6
:104E8000BCE72B681A1D2A601D686268002128464D
:104E9000FBF7BEF908B1401B606063682361002323
:104EA00084F84330AAE723692A4649464046D0475A
:104EB0000130ADD023689B0713D4E068039B984270
:104EC000B8BF1846A6E70123324649464046D047B8
:104ED00001309DD00135E36803995B1AAB42F2DCE7
:104EE000EBE7002504F11906F5E700BFDA530008E7
:104EF000EB53000838B5064D0023044608462B60E6
:104F0000FDF7DAFB431C02D12B6803B1236038BDE7
:104F1000208900200A44914200F1FF3300D17047FC
:104F200010B511F8014B03F8014F9142F9D110BDB2
:104F30002DE9F041804614460E4621B9BDE8F04106
:104F40001146FFF763BC2AB9FFF7F4FB2546284654
:104F5000BDE8F08100F01BF88442074602D8B4EBAC
:104F6000500F12D821464046FFF750FC0546002856
:104F7000EDD0BC422246314628BF3A46FFF7CAFF71
:104F800031464046FFF7D6FBE1E73546DFE751F80B
:104F9000043C181F002BBCBF0B58C0187047000002
:104FA000F8B500BFF8BC08BC9E467047F8B500BF16
:084FB000F8BC08BC9E467047E6
:104FB80041542B5253540D0A0000000041540D0A6D
:104FC800000000004F4B0D0A0000000041542B4325
:104FD800574D4F44453D310D0A00000041542B43C5
:104FE800574A41503D222573222C222573220D0A4F
:104FF8000000000041542B43495053544152543D42
:1050080022544350222C226E677579656E7765624B
:1050180073746D33322E303030776562686F737415
:105028006170702E636F6D222C38300D0A000000FD
:10503800474554202F75706C6F6164732F6C6174D1
:105048006573745F76657273696F6E5F7465737488
:105058002E74787420485454502F312E310D0A483C
:105068006F73743A206E677579656E7765627374CD
:105078006D33322E303030776562686F73746170CB
:10508800702E636F6D0D0A436F6E6E656374696F82
:105098006E3A20636C6F73650D0A0D0A00000000FC
:1050A80041542B43495053454E443D25640D0A0055
:1050B8003E00000053454E44204F4B0D0A000000AF
:1050C8000D0A0D0A000000000D0A0000434C4F5362
:1050D800450000000D0A0000434C4F5345440D0A9B
:1050E8000000000025642E25640A0000476F742024
:1050F8006869676865722076657273696F6E0A0001
:1051080056657273696F6E3A0000000056657273D7
:10511800696F6E206F6E207468652073657276659E
:1051280072206973206E6F74206869676865720AF7
:105138000000000052657475726E696E6720746FA6
:10514800206170706C69636174696F6E2070726F32
:105158006772616D2E2E2E0041542B4349505354D3
:105168004152543D22544350222C226E6775796572
:105178006E77656273746D33322E303030776562C6
:10518800686F73746170702E636F6D222C38300DE8
:105198000A0000004F4B0D0A00000000474554204C
:1051A8002F75706C6F6164732F312E302E6865789F
:1051B80020485454502F312E310D0A486F73743AD9
:1051C800206E677579656E77656273746D33322EFC
:1051D800303030776562686F73746170702E636FFA
:1051E8006D0D0A436F6E6E656374696F6E3A206366
:1051F8006C6F73650D0A0D0A0000000041542B43C3
:10520800495053454E443D25640D0A003E000000B8
:1052180053454E44204F4B0D0A0000000D0A0D0A5D
:1052280000000000434C4F5345440D0A00000000A5
:105238000D0A426F6F746C6F6164657220696E69E4
:105248007469617465640D0A0000000030393335F3
:1052580039333535313600004E677579656E000093
:10526800436F6E6E656374656420746F207769663A
:10527800690D0A00476F74206C6174657374206649
:10528800696C65206E616D650D0A0000446F776E6C
:105298006C6F61646564206669726D776172652000
:1052A80066696C650D0A000000000000000000003F
:1052B80001020304060708090000000001020304B4
:1052C80000202020202020202020282828282820CE
:1052D80020202020202020202020202020202020C6
:1052E800208810101010101010101010101010102E
:1052F800100404040404040404040410101010101E
:1053080010104141414141410101010101010101E7
:105318000101010101010101010101011010101039
:1053280010104242424242420202020202020202B9
:10533800020202020202020202020202101010100D
:105348002000000000000000000000000000000035
:105358000000000000000000000000000000000045
:105368000000000000000000000000000000000035
:105378000000000000000000000000000000000025
:105388000000000000000000000000000000000015
:105398000000000000000000000000000000000005
:1053A80000000000000000000000000000000000F5
:1053B80000000000000000000000000000000000E5
:1053C80000232D302B2000686C4C0065666745462D
:1053D8004700303132333435363738394142434467
:1053E80045460030313233343536373839616263F7
:0453F8006465660082
:0853FC00E4AEFF7F0100000098
:04540400C5010008D6
:04540800A1010008F6
:10540C000100000001000000000001080024F4006D
:10541C00100000000100000000000000E8870020E0
:10542C0050880020B8880020000000000000000018
:10543C000000000000000000000000000000000060
:10544C000000000000000000000000000000000050
:10545C000000000000000000000000000000000040
:08546C00000000001800002000
:04000005080027497F
:00000001FF
